{
  "_format": "hh-sol-artifact-1",
  "contractName": "StudentSocietyDAO",
  "sourceName": "contracts/StudentSocietyDAO.sol",
  "abi": [
    {
      "inputs": [],
      "stateMutability": "nonpayable",
      "type": "constructor"
    },
    {
      "anonymous": false,
      "inputs": [
        {
          "indexed": false,
          "internalType": "uint32",
          "name": "proposalIndex",
          "type": "uint32"
        }
      ],
      "name": "ProposalEnded",
      "type": "event"
    },
    {
      "anonymous": false,
      "inputs": [
        {
          "indexed": false,
          "internalType": "uint32",
          "name": "proposalIndex",
          "type": "uint32"
        }
      ],
      "name": "ProposalInitiated",
      "type": "event"
    },
    {
      "inputs": [],
      "name": "INI_fee",
      "outputs": [
        {
          "internalType": "uint256",
          "name": "",
          "type": "uint256"
        }
      ],
      "stateMutability": "view",
      "type": "function"
    },
    {
      "inputs": [],
      "name": "SUC_bonus",
      "outputs": [
        {
          "internalType": "uint256",
          "name": "",
          "type": "uint256"
        }
      ],
      "stateMutability": "view",
      "type": "function"
    },
    {
      "inputs": [],
      "name": "VOTE_fee",
      "outputs": [
        {
          "internalType": "uint256",
          "name": "",
          "type": "uint256"
        }
      ],
      "stateMutability": "view",
      "type": "function"
    },
    {
      "inputs": [
        {
          "internalType": "uint32",
          "name": "index",
          "type": "uint32"
        },
        {
          "internalType": "bool",
          "name": "Flag",
          "type": "bool"
        }
      ],
      "name": "member_vote",
      "outputs": [],
      "stateMutability": "nonpayable",
      "type": "function"
    },
    {
      "inputs": [],
      "name": "point_get",
      "outputs": [],
      "stateMutability": "nonpayable",
      "type": "function"
    },
    {
      "inputs": [
        {
          "components": [
            {
              "internalType": "uint32",
              "name": "index",
              "type": "uint32"
            },
            {
              "internalType": "address",
              "name": "proposer",
              "type": "address"
            },
            {
              "internalType": "uint256",
              "name": "startTime",
              "type": "uint256"
            },
            {
              "internalType": "uint256",
              "name": "duration",
              "type": "uint256"
            },
            {
              "internalType": "string",
              "name": "name",
              "type": "string"
            },
            {
              "internalType": "uint256",
              "name": "votecount",
              "type": "uint256"
            },
            {
              "internalType": "bool",
              "name": "fianl_judge",
              "type": "bool"
            }
          ],
          "internalType": "struct StudentSocietyDAO.Proposal",
          "name": "proposal_to",
          "type": "tuple"
        }
      ],
      "name": "proposal_initiate",
      "outputs": [],
      "stateMutability": "nonpayable",
      "type": "function"
    },
    {
      "inputs": [
        {
          "internalType": "uint32",
          "name": "index",
          "type": "uint32"
        }
      ],
      "name": "proposal_judge",
      "outputs": [],
      "stateMutability": "nonpayable",
      "type": "function"
    }
  ],
  "bytecode": "0x60806040523480156200001157600080fd5b5060405162000020906200008e565b6200002b906200014d565b604051809103906000f08015801562000048573d6000803e3d6000fd5b506000806101000a81548173ffffffffffffffffffffffffffffffffffffffff021916908373ffffffffffffffffffffffffffffffffffffffff16021790555062000184565b611617806200128083390190565b600082825260208201905092915050565b7f636c756200000000000000000000000000000000000000000000000000000000600082015250565b6000620000e56004836200009c565b9150620000f282620000ad565b602082019050919050565b7f636c7562546f6b656e0000000000000000000000000000000000000000000000600082015250565b6000620001356009836200009c565b91506200014282620000fd565b602082019050919050565b600060408201905081810360008301526200016881620000d6565b905081810360208301526200017d8162000126565b9050919050565b6110ec80620001946000396000f3fe608060405234801561001057600080fd5b506004361061007d5760003560e01c80638b5bfb101161005b5780638b5bfb10146100c6578063953123a9146100e4578063c7af33fb14610102578063e8fb81661461011e5761007d565b80631af299381461008257806376c1a3a91461008c5780638922d367146100aa575b600080fd5b61008a61013a565b005b6100946102d6565b6040516100a19190610941565b60405180910390f35b6100c460048036038101906100bf91906109e4565b6102db565b005b6100ce6104a7565b6040516100db9190610941565b60405180910390f35b6100ec6104ac565b6040516100f99190610941565b60405180910390f35b61011c60048036038101906101179190610cce565b6104b1565b005b61013860048036038101906101339190610d17565b610690565b005b60001515600260003373ffffffffffffffffffffffffffffffffffffffff1673ffffffffffffffffffffffffffffffffffffffff16815260200190815260200160002060009054906101000a900460ff161515146101cd576040517f08c379a00000000000000000000000000000000000000000000000000000000081526004016101c490610dc7565b60405180910390fd5b60008054906101000a900473ffffffffffffffffffffffffffffffffffffffff1673ffffffffffffffffffffffffffffffffffffffff1663a9059cbb3360646040518363ffffffff1660e01b8152600401610229929190610e3b565b602060405180830381600087803b15801561024357600080fd5b505af1158015610257573d6000803e3d6000fd5b505050506040513d601f19601f8201168201806040525081019061027b9190610e79565b506001600260003373ffffffffffffffffffffffffffffffffffffffff1673ffffffffffffffffffffffffffffffffffffffff16815260200190815260200160002060006101000a81548160ff021916908315150217905550565b600a81565b600160008363ffffffff1663ffffffff16815260200190815260200160002060020154600160008463ffffffff1663ffffffff1681526020019081526020016000206001015461032b9190610ed5565b42111561036d576040517f08c379a000000000000000000000000000000000000000000000000000000000815260040161036490610f77565b60405180910390fd5b60008054906101000a900473ffffffffffffffffffffffffffffffffffffffff1673ffffffffffffffffffffffffffffffffffffffff166323b872dd333060016040518463ffffffff1660e01b81526004016103cb93929190610f97565b602060405180830381600087803b1580156103e557600080fd5b505af11580156103f9573d6000803e3d6000fd5b505050506040513d601f19601f8201168201806040525081019061041d9190610e79565b506001151581151514156104695760018060008463ffffffff1663ffffffff168152602001908152602001600020600401600082825461045d9190610ed5565b925050819055506104a3565b60018060008463ffffffff1663ffffffff168152602001908152602001600020600401600082825461049b9190610fce565b925050819055505b5050565b600181565b601481565b60008054906101000a900473ffffffffffffffffffffffffffffffffffffffff1673ffffffffffffffffffffffffffffffffffffffff166323b872dd3330600a6040518463ffffffff1660e01b815260040161050f93929190610f97565b602060405180830381600087803b15801561052957600080fd5b505af115801561053d573d6000803e3d6000fd5b505050506040513d601f19601f820116820180604052508101906105619190610e79565b508060016000836000015163ffffffff1663ffffffff16815260200190815260200160002060008201518160000160006101000a81548163ffffffff021916908363ffffffff16021790555060208201518160000160046101000a81548173ffffffffffffffffffffffffffffffffffffffff021916908373ffffffffffffffffffffffffffffffffffffffff16021790555060408201518160010155606082015181600201556080820151816003019080519060200190610624929190610885565b5060a0820151816004015560c08201518160050160006101000a81548160ff0219169083151502179055509050507f944f5ef0a446d54c41ea39dac07de1fd2150ec3346cbff6c627d1ffba048676c81600001516040516106859190611011565b60405180910390a150565b600160008263ffffffff1663ffffffff16815260200190815260200160002060020154600160008363ffffffff1663ffffffff168152602001908152602001600020600101546106e09190610ed5565b42116106eb57600080fd5b6000600160008363ffffffff1663ffffffff1681526020019081526020016000206004015411156108465760018060008363ffffffff1663ffffffff16815260200190815260200160002060050160006101000a81548160ff02191690831515021790555060008054906101000a900473ffffffffffffffffffffffffffffffffffffffff1673ffffffffffffffffffffffffffffffffffffffff1663a9059cbb600160008463ffffffff1663ffffffff16815260200190815260200160002060000160049054906101000a900473ffffffffffffffffffffffffffffffffffffffff1660146040518363ffffffff1660e01b81526004016107ee92919061102c565b602060405180830381600087803b15801561080857600080fd5b505af115801561081c573d6000803e3d6000fd5b505050506040513d601f19601f820116820180604052508101906108409190610e79565b50610882565b6000600160008363ffffffff1663ffffffff16815260200190815260200160002060050160006101000a81548160ff0219169083151502179055505b50565b82805461089190611084565b90600052602060002090601f0160209004810192826108b357600085556108fa565b82601f106108cc57805160ff19168380011785556108fa565b828001600101855582156108fa579182015b828111156108f95782518255916020019190600101906108de565b5b509050610907919061090b565b5090565b5b8082111561092457600081600090555060010161090c565b5090565b6000819050919050565b61093b81610928565b82525050565b60006020820190506109566000830184610932565b92915050565b6000604051905090565b600080fd5b600080fd5b600063ffffffff82169050919050565b61098981610970565b811461099457600080fd5b50565b6000813590506109a681610980565b92915050565b60008115159050919050565b6109c1816109ac565b81146109cc57600080fd5b50565b6000813590506109de816109b8565b92915050565b600080604083850312156109fb576109fa610966565b5b6000610a0985828601610997565b9250506020610a1a858286016109cf565b9150509250929050565b600080fd5b6000601f19601f8301169050919050565b7f4e487b7100000000000000000000000000000000000000000000000000000000600052604160045260246000fd5b610a7282610a29565b810181811067ffffffffffffffff82111715610a9157610a90610a3a565b5b80604052505050565b6000610aa461095c565b9050610ab08282610a69565b919050565b600080fd5b600073ffffffffffffffffffffffffffffffffffffffff82169050919050565b6000610ae582610aba565b9050919050565b610af581610ada565b8114610b0057600080fd5b50565b600081359050610b1281610aec565b92915050565b610b2181610928565b8114610b2c57600080fd5b50565b600081359050610b3e81610b18565b92915050565b600080fd5b600080fd5b600067ffffffffffffffff821115610b6957610b68610a3a565b5b610b7282610a29565b9050602081019050919050565b82818337600083830152505050565b6000610ba1610b9c84610b4e565b610a9a565b905082815260208101848484011115610bbd57610bbc610b49565b5b610bc8848285610b7f565b509392505050565b600082601f830112610be557610be4610b44565b5b8135610bf5848260208601610b8e565b91505092915050565b600060e08284031215610c1457610c13610a24565b5b610c1e60e0610a9a565b90506000610c2e84828501610997565b6000830152506020610c4284828501610b03565b6020830152506040610c5684828501610b2f565b6040830152506060610c6a84828501610b2f565b606083015250608082013567ffffffffffffffff811115610c8e57610c8d610ab5565b5b610c9a84828501610bd0565b60808301525060a0610cae84828501610b2f565b60a08301525060c0610cc2848285016109cf565b60c08301525092915050565b600060208284031215610ce457610ce3610966565b5b600082013567ffffffffffffffff811115610d0257610d0161096b565b5b610d0e84828501610bfe565b91505092915050565b600060208284031215610d2d57610d2c610966565b5b6000610d3b84828501610997565b91505092915050565b600082825260208201905092915050565b7f54686973206d656d6265722068617320676f742070696f6e7420616c7265616460008201527f7900000000000000000000000000000000000000000000000000000000000000602082015250565b6000610db1602183610d44565b9150610dbc82610d55565b604082019050919050565b60006020820190508181036000830152610de081610da4565b9050919050565b610df081610ada565b82525050565b6000819050919050565b6000819050919050565b6000610e25610e20610e1b84610df6565b610e00565b610928565b9050919050565b610e3581610e0a565b82525050565b6000604082019050610e506000830185610de7565b610e5d6020830184610e2c565b9392505050565b600081519050610e73816109b8565b92915050565b600060208284031215610e8f57610e8e610966565b5b6000610e9d84828501610e64565b91505092915050565b7f4e487b7100000000000000000000000000000000000000000000000000000000600052601160045260246000fd5b6000610ee082610928565b9150610eeb83610928565b9250827fffffffffffffffffffffffffffffffffffffffffffffffffffffffffffffffff03821115610f2057610f1f610ea6565b5b828201905092915050565b7f566f74652068617320656e646564000000000000000000000000000000000000600082015250565b6000610f61600e83610d44565b9150610f6c82610f2b565b602082019050919050565b60006020820190508181036000830152610f9081610f54565b9050919050565b6000606082019050610fac6000830186610de7565b610fb96020830185610de7565b610fc66040830184610932565b949350505050565b6000610fd982610928565b9150610fe483610928565b925082821015610ff757610ff6610ea6565b5b828203905092915050565b61100b81610970565b82525050565b60006020820190506110266000830184611002565b92915050565b60006040820190506110416000830185610de7565b61104e6020830184610932565b9392505050565b7f4e487b7100000000000000000000000000000000000000000000000000000000600052602260045260246000fd5b6000600282049050600182168061109c57607f821691505b602082108114156110b0576110af611055565b5b5091905056fea2646970667358221220967a9577080199bb7770b65b5e9623b13f49ade84e0819e2c3ee9f0f8528a14664736f6c6343000809003360806040523480156200001157600080fd5b5060405162001617380380620016178339818101604052810190620000379190620002be565b81600390805190602001906200004f92919062000071565b5080600490805190602001906200006892919062000071565b505050620003a8565b8280546200007f9062000372565b90600052602060002090601f016020900481019282620000a35760008555620000ef565b82601f10620000be57805160ff1916838001178555620000ef565b82800160010185558215620000ef579182015b82811115620000ee578251825591602001919060010190620000d1565b5b509050620000fe919062000102565b5090565b5b808211156200011d57600081600090555060010162000103565b5090565b6000604051905090565b600080fd5b600080fd5b600080fd5b600080fd5b6000601f19601f8301169050919050565b7f4e487b7100000000000000000000000000000000000000000000000000000000600052604160045260246000fd5b6200018a826200013f565b810181811067ffffffffffffffff82111715620001ac57620001ab62000150565b5b80604052505050565b6000620001c162000121565b9050620001cf82826200017f565b919050565b600067ffffffffffffffff821115620001f257620001f162000150565b5b620001fd826200013f565b9050602081019050919050565b60005b838110156200022a5780820151818401526020810190506200020d565b838111156200023a576000848401525b50505050565b6000620002576200025184620001d4565b620001b5565b9050828152602081018484840111156200027657620002756200013a565b5b620002838482856200020a565b509392505050565b600082601f830112620002a357620002a262000135565b5b8151620002b584826020860162000240565b91505092915050565b60008060408385031215620002d857620002d76200012b565b5b600083015167ffffffffffffffff811115620002f957620002f862000130565b5b62000307858286016200028b565b925050602083015167ffffffffffffffff8111156200032b576200032a62000130565b5b62000339858286016200028b565b9150509250929050565b7f4e487b7100000000000000000000000000000000000000000000000000000000600052602260045260246000fd5b600060028204905060018216806200038b57607f821691505b60208210811415620003a257620003a162000343565b5b50919050565b61125f80620003b86000396000f3fe608060405234801561001057600080fd5b50600436106100a95760003560e01c80633950935111610071578063395093511461016857806370a082311461019857806395d89b41146101c8578063a457c2d7146101e6578063a9059cbb14610216578063dd62ed3e14610246576100a9565b806306fdde03146100ae578063095ea7b3146100cc57806318160ddd146100fc57806323b872dd1461011a578063313ce5671461014a575b600080fd5b6100b6610276565b6040516100c39190610b19565b60405180910390f35b6100e660048036038101906100e19190610bd4565b610308565b6040516100f39190610c2f565b60405180910390f35b61010461032b565b6040516101119190610c59565b60405180910390f35b610134600480360381019061012f9190610c74565b610335565b6040516101419190610c2f565b60405180910390f35b610152610364565b60405161015f9190610ce3565b60405180910390f35b610182600480360381019061017d9190610bd4565b61036d565b60405161018f9190610c2f565b60405180910390f35b6101b260048036038101906101ad9190610cfe565b6103a4565b6040516101bf9190610c59565b60405180910390f35b6101d06103ec565b6040516101dd9190610b19565b60405180910390f35b61020060048036038101906101fb9190610bd4565b61047e565b60405161020d9190610c2f565b60405180910390f35b610230600480360381019061022b9190610bd4565b6104f5565b60405161023d9190610c2f565b60405180910390f35b610260600480360381019061025b9190610d2b565b610518565b60405161026d9190610c59565b60405180910390f35b60606003805461028590610d9a565b80601f01602080910402602001604051908101604052809291908181526020018280546102b190610d9a565b80156102fe5780601f106102d3576101008083540402835291602001916102fe565b820191906000526020600020905b8154815290600101906020018083116102e157829003601f168201915b5050505050905090565b60008061031361059f565b90506103208185856105a7565b600191505092915050565b6000600254905090565b60008061034061059f565b905061034d858285610772565b6103588585856107fe565b60019150509392505050565b60006012905090565b60008061037861059f565b905061039981858561038a8589610518565b6103949190610dfb565b6105a7565b600191505092915050565b60008060008373ffffffffffffffffffffffffffffffffffffffff1673ffffffffffffffffffffffffffffffffffffffff168152602001908152602001600020549050919050565b6060600480546103fb90610d9a565b80601f016020809104026020016040519081016040528092919081815260200182805461042790610d9a565b80156104745780601f1061044957610100808354040283529160200191610474565b820191906000526020600020905b81548152906001019060200180831161045757829003601f168201915b5050505050905090565b60008061048961059f565b905060006104978286610518565b9050838110156104dc576040517f08c379a00000000000000000000000000000000000000000000000000000000081526004016104d390610ec3565b60405180910390fd5b6104e982868684036105a7565b60019250505092915050565b60008061050061059f565b905061050d8185856107fe565b600191505092915050565b6000600160008473ffffffffffffffffffffffffffffffffffffffff1673ffffffffffffffffffffffffffffffffffffffff16815260200190815260200160002060008373ffffffffffffffffffffffffffffffffffffffff1673ffffffffffffffffffffffffffffffffffffffff16815260200190815260200160002054905092915050565b600033905090565b600073ffffffffffffffffffffffffffffffffffffffff168373ffffffffffffffffffffffffffffffffffffffff161415610617576040517f08c379a000000000000000000000000000000000000000000000000000000000815260040161060e90610f55565b60405180910390fd5b600073ffffffffffffffffffffffffffffffffffffffff168273ffffffffffffffffffffffffffffffffffffffff161415610687576040517f08c379a000000000000000000000000000000000000000000000000000000000815260040161067e90610fe7565b60405180910390fd5b80600160008573ffffffffffffffffffffffffffffffffffffffff1673ffffffffffffffffffffffffffffffffffffffff16815260200190815260200160002060008473ffffffffffffffffffffffffffffffffffffffff1673ffffffffffffffffffffffffffffffffffffffff168152602001908152602001600020819055508173ffffffffffffffffffffffffffffffffffffffff168373ffffffffffffffffffffffffffffffffffffffff167f8c5be1e5ebec7d5bd14f71427d1e84f3dd0314c0f7b2291e5b200ac8c7c3b925836040516107659190610c59565b60405180910390a3505050565b600061077e8484610518565b90507fffffffffffffffffffffffffffffffffffffffffffffffffffffffffffffffff81146107f857818110156107ea576040517f08c379a00000000000000000000000000000000000000000000000000000000081526004016107e190611053565b60405180910390fd5b6107f784848484036105a7565b5b50505050565b600073ffffffffffffffffffffffffffffffffffffffff168373ffffffffffffffffffffffffffffffffffffffff16141561086e576040517f08c379a0000000000000000000000000000000000000000000000000000000008152600401610865906110e5565b60405180910390fd5b600073ffffffffffffffffffffffffffffffffffffffff168273ffffffffffffffffffffffffffffffffffffffff1614156108de576040517f08c379a00000000000000000000000000000000000000000000000000000000081526004016108d590611177565b60405180910390fd5b6108e9838383610a76565b60008060008573ffffffffffffffffffffffffffffffffffffffff1673ffffffffffffffffffffffffffffffffffffffff1681526020019081526020016000205490508181101561096f576040517f08c379a000000000000000000000000000000000000000000000000000000000815260040161096690611209565b60405180910390fd5b8181036000808673ffffffffffffffffffffffffffffffffffffffff1673ffffffffffffffffffffffffffffffffffffffff16815260200190815260200160002081905550816000808573ffffffffffffffffffffffffffffffffffffffff1673ffffffffffffffffffffffffffffffffffffffff168152602001908152602001600020600082825401925050819055508273ffffffffffffffffffffffffffffffffffffffff168473ffffffffffffffffffffffffffffffffffffffff167fddf252ad1be2c89b69c2b068fc378daa952ba7f163c4a11628f55a4df523b3ef84604051610a5d9190610c59565b60405180910390a3610a70848484610a7b565b50505050565b505050565b505050565b600081519050919050565b600082825260208201905092915050565b60005b83811015610aba578082015181840152602081019050610a9f565b83811115610ac9576000848401525b50505050565b6000601f19601f8301169050919050565b6000610aeb82610a80565b610af58185610a8b565b9350610b05818560208601610a9c565b610b0e81610acf565b840191505092915050565b60006020820190508181036000830152610b338184610ae0565b905092915050565b600080fd5b600073ffffffffffffffffffffffffffffffffffffffff82169050919050565b6000610b6b82610b40565b9050919050565b610b7b81610b60565b8114610b8657600080fd5b50565b600081359050610b9881610b72565b92915050565b6000819050919050565b610bb181610b9e565b8114610bbc57600080fd5b50565b600081359050610bce81610ba8565b92915050565b60008060408385031215610beb57610bea610b3b565b5b6000610bf985828601610b89565b9250506020610c0a85828601610bbf565b9150509250929050565b60008115159050919050565b610c2981610c14565b82525050565b6000602082019050610c446000830184610c20565b92915050565b610c5381610b9e565b82525050565b6000602082019050610c6e6000830184610c4a565b92915050565b600080600060608486031215610c8d57610c8c610b3b565b5b6000610c9b86828701610b89565b9350506020610cac86828701610b89565b9250506040610cbd86828701610bbf565b9150509250925092565b600060ff82169050919050565b610cdd81610cc7565b82525050565b6000602082019050610cf86000830184610cd4565b92915050565b600060208284031215610d1457610d13610b3b565b5b6000610d2284828501610b89565b91505092915050565b60008060408385031215610d4257610d41610b3b565b5b6000610d5085828601610b89565b9250506020610d6185828601610b89565b9150509250929050565b7f4e487b7100000000000000000000000000000000000000000000000000000000600052602260045260246000fd5b60006002820490506001821680610db257607f821691505b60208210811415610dc657610dc5610d6b565b5b50919050565b7f4e487b7100000000000000000000000000000000000000000000000000000000600052601160045260246000fd5b6000610e0682610b9e565b9150610e1183610b9e565b9250827fffffffffffffffffffffffffffffffffffffffffffffffffffffffffffffffff03821115610e4657610e45610dcc565b5b828201905092915050565b7f45524332303a2064656372656173656420616c6c6f77616e63652062656c6f7760008201527f207a65726f000000000000000000000000000000000000000000000000000000602082015250565b6000610ead602583610a8b565b9150610eb882610e51565b604082019050919050565b60006020820190508181036000830152610edc81610ea0565b9050919050565b7f45524332303a20617070726f76652066726f6d20746865207a65726f2061646460008201527f7265737300000000000000000000000000000000000000000000000000000000602082015250565b6000610f3f602483610a8b565b9150610f4a82610ee3565b604082019050919050565b60006020820190508181036000830152610f6e81610f32565b9050919050565b7f45524332303a20617070726f766520746f20746865207a65726f20616464726560008201527f7373000000000000000000000000000000000000000000000000000000000000602082015250565b6000610fd1602283610a8b565b9150610fdc82610f75565b604082019050919050565b6000602082019050818103600083015261100081610fc4565b9050919050565b7f45524332303a20696e73756666696369656e7420616c6c6f77616e6365000000600082015250565b600061103d601d83610a8b565b915061104882611007565b602082019050919050565b6000602082019050818103600083015261106c81611030565b9050919050565b7f45524332303a207472616e736665722066726f6d20746865207a65726f20616460008201527f6472657373000000000000000000000000000000000000000000000000000000602082015250565b60006110cf602583610a8b565b91506110da82611073565b604082019050919050565b600060208201905081810360008301526110fe816110c2565b9050919050565b7f45524332303a207472616e7366657220746f20746865207a65726f206164647260008201527f6573730000000000000000000000000000000000000000000000000000000000602082015250565b6000611161602383610a8b565b915061116c82611105565b604082019050919050565b6000602082019050818103600083015261119081611154565b9050919050565b7f45524332303a207472616e7366657220616d6f756e742065786365656473206260008201527f616c616e63650000000000000000000000000000000000000000000000000000602082015250565b60006111f3602683610a8b565b91506111fe82611197565b604082019050919050565b60006020820190508181036000830152611222816111e6565b905091905056fea2646970667358221220b9b7d234f7ab4359952e2b9496d689a1d788ce8358d4d0d4ece25a09087f3d7464736f6c63430008090033",
  "linkReferences": {},
  "deployedLinkReferences": {}
}